:020000040000FA
:100000000C9462000C948A000C948A000C948A0070
:100010000C948A000C948A000C948A000C948A0038
:100020000C948A000C948A000C948A000C948A0028
:100030000C948A000C948A000C948A000C948A0018
:100040000C94EE020C948A000C94BC020C94960260
:100050000C948A000C948A000C948A000C948A00F8
:100060000C948A000C948A000000000024002700F1
:100070002A0000000000250028002B0000000000DE
:1000800023002600290004040404040404040202DA
:100090000202020203030303030301020408102007
:1000A0004080010204081020010204081020000012
:1000B0000008000201000003040700000000000027
:1000C0000000380311241FBECFEFD8E0DEBFCDBF44
:1000D00011E0A0E0B1E0E0ECFEE002C005900D927E
:1000E000A632B107D9F721E0A6E2B1E001C01D9226
:1000F000A03FB207E1F710E0C2E6D0E004C02197CC
:10010000FE010E945807C136D107C9F70E946F034C
:100110000C945E070C940000AF92BF92CF92DF92D6
:10012000EF92FF920F931F93CF93DF936C017B01AC
:100130008B01040F151FEB015E01AE18BF08C0173D
:10014000D10759F06991D601ED91FC910190F081B0
:10015000E02DC6010995892B79F7C501DF91CF9173
:100160001F910F91FF90EF90DF90CF90BF90AF90D5
:100170000895FC01538D448D252F30E0842F90E0AD
:10018000821B930B541710F0CF9608950197089592
:10019000FC01918D828D981761F0A28DAE0FBF2F5B
:1001A000B11D5D968C91928D9F5F9F73928F90E0B1
:1001B00008958FEF9FEF0895FC01918D828D981720
:1001C00031F0828DE80FF11D858D90E008958FEF5D
:1001D0009FEF0895FC01918D228D892F90E0805C26
:1001E0009F4F821B91098F73992708958FE491E0A7
:1001F0000E94EA0021E0892B09F420E0822F089573
:1002000080E090E0892B29F00E94F60081110C9487
:1002100000000895FC01A48DA80FB92FB11DA35AA9
:10022000BF4F2C91848D90E001968F739927848F16
:10023000A689B7892C93A089B1898C918370806439
:100240008C93938D848D981306C00288F389E02DDA
:1002500080818F7D80830895EF92FF920F931F938B
:10026000CF93DF93EC0181E0888F9B8D8C8D981369
:100270001AC0E889F989808185FF15C09FB7F89475
:10028000EE89FF896083E889F989808183708064C1
:1002900080839FBF81E090E0DF91CF911F910F910C
:1002A000FF90EF900895F62E0B8D10E00F5F1F4F1B
:1002B0000F731127E02E8C8D8E110CC00FB607FC2A
:1002C000FACFE889F989808185FFF5CFCE010E94B8
:1002D0000A01F1CFEB8DEC0FFD2FF11DE35AFF4F1B
:1002E000F0829FB7F8940B8FEA89FB898081806246
:1002F000CFCFCF93DF93EC01888D8823B9F0AA8903
:10030000BB89E889F9898C9185FD03C0808186FDD0
:100310000DC00FB607FCF7CF8C9185FFF2CF80811F
:1003200085FFEDCFCE010E940A01E9CFDF91CF9189
:100330000895833081F028F4813099F08230A9F05B
:1003400008958730A9F08830C9F08430B1F48091E5
:1003500080008F7D03C0809180008F778093800024
:10036000089584B58F7784BD089584B58F7DFBCFC4
:100370008091B0008F778093B00008958091B00095
:100380008F7DF9CFCF93DF93282F30E0F901E2552D
:10039000FF4F8491F901E656FF4FD491F901EA57D6
:1003A000FF4FC491CC23A1F081110E949901EC2F41
:1003B000F0E0EE0FFF1FE458FF4FA591B491EC91D0
:1003C000ED2381E090E009F480E0DF91CF91089582
:1003D00080E090E0FACF1F93CF93DF93282F30E097
:1003E000F901E255FF4F8491F901E656FF4FD49190
:1003F000F901EA57FF4FC491CC23A9F0162F8111C0
:100400000E949901EC2FF0E0EE0FFF1FEE58FF4F16
:10041000A591B4918FB7F894EC91111108C0D095C3
:10042000DE23DC938FBFDF91CF911F910895DE2BE8
:10043000F8CFCF93DF9390E0FC01E656FF4F249175
:100440008A579F4FFC0184918823D1F090E0880F58
:10045000991FFC01E859FF4FA591B491FC01EE589A
:10046000FF4FC591D49161110EC09FB7F8948C9144
:10047000E22FE0958E238C932881E223E8839FBFAF
:10048000DF91CF9108958FB7F894EC91E22BEC9324
:100490008FBFF6CF3FB7F89480912B0190912C013C
:1004A000A0912D01B0912E0126B5A89B05C02F3F2C
:1004B00019F00196A11DB11D3FBFBA2FA92F982F8A
:1004C0008827BC01CD01620F711D811D911D42E085
:1004D000660F771F881F991F4A95D1F708952FB788
:1004E000F8946091270170912801809129019091E1
:1004F0002A012FBF0895FC0101900020E9F73197F0
:10050000AF01481B590BBC018FE491E00C948C00A7
:10051000CF93DF930E947B02EC0185E191E00E9482
:100520007B028C0F9D1FDF91CF9108951F920F9238
:100530000FB60F9211242F933F934F935F936F93B6
:100540007F938F939F93AF93BF93EF93FF938FE42A
:1005500091E00E940A01FF91EF91BF91AF919F91AD
:100560008F917F916F915F914F913F912F910F905C
:100570000FBE0F901F9018951F920F920FB60F92FB
:1005800011242F938F939F93EF93FF93E0915F013B
:10059000F09160018081E0916501F091660182FD3A
:1005A0001BC09081809168018F5F8F7320916901DA
:1005B000821741F0E0916801F0E0E15BFE4F958F1A
:1005C00080936801FF91EF919F918F912F910F90F0
:1005D0000FBE0F901F9018958081F4CF1F920F923D
:1005E0000FB60F9211242F933F938F939F93AF9346
:1005F000BF938091270190912801A0912901B0918A
:100600002A013091260123E0230F2D3758F501965A
:10061000A11DB11D209326018093270190932801ED
:10062000A0932901B0932A0180912B0190912C0174
:10063000A0912D01B0912E010196A11DB11D8093B5
:100640002B0190932C01A0932D01B0932E01BF910B
:10065000AF919F918F913F912F910F900FBE0F906F
:100660001F90189526E8230F0296A11DB11DD2CF29
:10067000EFE4F1E01382128288EE93E0A0E0B0E0B4
:1006800084839583A683B78387E091E091838083F9
:1006900085EC90E09587848784EC90E09787868747
:1006A00080EC90E0918B808B81EC90E0938B828B3F
:1006B00082EC90E0958B848B86EC90E0978B868B18
:1006C000118E128E138E148E0E946F026093EC01B5
:1006D0007093ED018093EE019093EF010895CF9315
:1006E000DF93CDB7DEB7A1970FB6F894DEBF0FBE8C
:1006F000CDBF789484B5826084BD84B5816084BDAB
:1007000085B5826085BD85B5816085BD80916E00AF
:10071000816080936E0010928100809181008260E0
:10072000809381008091810081608093810080911D
:1007300080008160809380008091B100846080930C
:10074000B1008091B00081608093B00080917A0008
:10075000846080937A0080917A00826080937A002E
:1007600080917A00816080937A0080917A0080681D
:1007700080937A001092C10061E082E00E94190229
:1007800061E083E00E94190261E084E00E941902A6
:1007900061E085E00E94190261E08DE00E9419028B
:1007A00061E08CE00E94190261E08BE00E94190276
:1007B00061E08AE00E94190261E089E00E9419026A
:1007C00061E088E00E94190260E08EE00E94190258
:1007D00060E087E00E94190260E086E00E94190252
:1007E00060E08FE00E94190261E084E00E94EB016A
:1007F00061E085E00E94EB0161E08DE00E94EB0189
:1008000061E08AE00E94EB01E0915F01F0916001FC
:1008100082E08083E0915B01F0915C011082E091C5
:100820005D01F0915E018FEC808310926701E09191
:100830006301F091640186E08083E0916101F091B1
:100840006201808180618083E0916101F0916201A9
:10085000808188608083E0916101F09162018081F4
:1008600080688083E0916101F091620180818F7DD9
:10087000808388E191E00E94880290E0C92E90E098
:10088000D92E11E00E946F026093EC017093ED018C
:100890008093EE019093EF018FE491E00E94EA00D3
:1008A000892B09F4FBC08FE491E00E94C8008536D3
:1008B000910509F0F3C060E085E00E94EB0160E083
:1008C00084E00E94EB0160E08BE00E94EB0160E0BD
:1008D00088E00E94EB0160E082E00E94EB0160E0B2
:1008E00083E00E94EB0160E08DE00E94EB0160E09C
:1008F0008CE00E94EB0160E08AE00E94EB0160E086
:1009000089E00E94EB01E0904D01F0904E0126E05D
:10091000E216F1040CF068C082E00E94C20161E0BE
:10092000892B09F060E082E00E94EB0183E00E94E5
:10093000C20161E0892B09F060E083E00E94EB01D5
:100940008DE00E94C20161E0892B09F060E08DE03A
:100950000E94EB018CE00E94C20161E0892B09F04A
:1009600060E08CE00E94EB018AE00E94C20161E03D
:10097000892B09F060E08AE00E94EB0189E00E9487
:10098000C20161E0892B09F060E089E00E94EB017F
:100990000E944A022B013C0182E3882E912CA12C5B
:1009A000B12C0E944A026419750986099709683EAC
:1009B000734081059105A8F381E0881A9108A10888
:1009C000B10898EE490E93E0591E611C711C811408
:1009D0009104A104B10429F7FFEFEF1AFF0AF09286
:1009E0004E01E0924D018FCF1092EC011092ED017B
:1009F0001092EE011092EF01109243011092440107
:100A0000109245011092460110923F011092400150
:100A1000109241011092420110923A0110923B0152
:100A200010923C0110923D01109247011092480132
:100A30001092490110924A0110923401109235012E
:100A4000109236011092370110923001109231014C
:100A5000109232011092330110924E0110924D010A
:100A6000109302011093000110923E01109239017F
:100A70001092380110922F011093010161E085E07E
:100A80000E94EB0161E084E00E94EB0161E08DE0F7
:100A90000E94EB0161E08AE00E94EB018EE00E947F
:100AA000C201019771F48EE00E94C2010197D9F34F
:100AB00069E78FE491E00E942C0185E191E00E94BA
:100AC0007B0287E00E94C201019709F044C087E0E1
:100AD0000E94C2010197D9F380914B0190914C0182
:100AE000019690934C0180934B01082E000C990BBA
:100AF00080964C01092E000CAA08BB0897FF7DC008
:100B00006DE28FE491E00E942C0122273327A90196
:100B1000281939094A095B0919A2CE0181967C017D
:100B2000CA01B9012AE030E040E050E00E943607F7
:100B3000605DF70162937F01211531054105510583
:100B400079F7E114F10419F0C7010E947B0285E1F5
:100B500091E00E947B028091EC019091ED01A091C7
:100B6000EE01B091EF014091470150914801609131
:100B7000490170914A014C015D01841A950AA60A47
:100B8000B70AB501A401463B53406105710508F45D
:100B90004CC020910201222309F447C02091010199
:100BA000222309F442C08EE191E00E9488020E9453
:100BB0006F026093430170934401809345019093C9
:100BC000460160E085E00E94EB0160E08DE00E945C
:100BD000EB0161E08BE00E94EB01109202011093A7
:100BE0000001C114D10409F44DCE0E94F6008823FF
:100BF00009F448CE0E94000045CEA501940119A237
:100C0000CE0181967C01CA01B9012AE030E040E0C2
:100C100050E00E943607605DF70162937F01211565
:100C200031054105510579F78CCF40914301509131
:100C3000440160914501709146014C015D01841AA7
:100C4000950AA60AB70AB501A401443853406105C4
:100C5000710538F120910001222319F12091010141
:100C60002223F9F00E946F0260933F0170934001CC
:100C7000809341019093420160E084E00E94EB0187
:100C800060E08BE00E94EB011092000161E083E0E4
:100C90000E94EB0161E08CE00E94EB0110933E01A9
:100CA000A0CF40913F01509140016091410170916E
:100CB00042014C015D01841A950AA60AB70AB501E2
:100CC000A401443F514061057105E8F120913E01C6
:100CD0002223C9F10E946F0260933A0170933B0195
:100CE00080933C0190933D0160E083E00E94EB0122
:100CF00060E08CE00E94EB0110923E0161E082E036
:100D00000E94EB0161E08DE00E94EB01109339013C
:100D100060E08AE00E94EB011092010161E088E04E
:100D20000E94EB01109338010E946F02609334011E
:100D300070933501809336019093370182E291E000
:100D40000E9488024ECF409134015091350160914C
:100D50003601709137014C015D01841A950AA60A8B
:100D6000B70AB501A4014438534061057105D8F0B4
:100D7000209138012223B9F00E946F026093300164
:100D800070933101809332019093330160E088E0E9
:100D90000E94EB011092380161E089E00E94EB01B2
:100DA00010932F011ECF409130015091310160917D
:100DB0003201709133014C015D01841A950AA60A33
:100DC000B70AB501A401443F51406105710598F08F
:100DD00020912F01222379F00E946F0260E089E0C8
:100DE0000E94EB0110922F0161E08AE00E94EB016A
:100DF00010930101F6CE40913A0150913B01609170
:100E00003C0170913D01841B950BA60BB70B863BF3
:100E10009340A105B10508F4E4CE809139018823FF
:100E200009F4DFCE80910101882309F4DACE88E14C
:100E300091E00E9488020E946F02609347017093C4
:100E400048018093490190934A0160E082E00E944A
:100E5000EB011092390161E085E00E94EB0161E055
:100E600084E00E94EB0110930201BBCEA1E21A2E96
:100E7000AA1BBB1BFD010DC0AA1FBB1FEE1FFF1F3E
:100E8000A217B307E407F50720F0A21BB30BE40B8E
:100E9000F50B661F771F881F991F1A9469F76095D5
:100EA0007095809590959B01AC01BD01CF0108958F
:100EB000EE0FFF1F0590F491E02D0994F894FFCFF9
:100EC000010101000000002C018C00B9007901EA49
:100ED00000C800DC000D0A00207675656C002076E5
:060EE00031002076320013
:107E0000112484B714BE81FFF0D085E080938100F7
:107E100082E08093C00088E18093C10086E0809377
:107E2000C20080E18093C4008EE0C9D0259A86E02C
:107E300020E33CEF91E0309385002093840096BBD3
:107E4000B09BFECF1D9AA8958150A9F7CC24DD24C4
:107E500088248394B5E0AB2EA1E19A2EF3E0BF2EE7
:107E6000A2D0813461F49FD0082FAFD0023811F036
:107E7000013811F484E001C083E08DD089C08234E0
:107E800011F484E103C0853419F485E0A6D080C0E4
:107E9000853579F488D0E82EFF2485D0082F10E0AE
:107EA000102F00270E291F29000F111F8ED06801E7
:107EB0006FC0863521F484E090D080E0DECF843638
:107EC00009F040C070D06FD0082F6DD080E0C81688
:107ED00080E7D80618F4F601B7BEE895C0E0D1E017
:107EE00062D089930C17E1F7F0E0CF16F0E7DF06D8
:107EF00018F0F601B7BEE89568D007B600FCFDCFD4
:107F0000A601A0E0B1E02C9130E011968C91119780
:107F100090E0982F8827822B932B1296FA010C0160
:107F200087BEE89511244E5F5F4FF1E0A038BF0790
:107F300051F7F601A7BEE89507B600FCFDCF97BE46
:107F4000E89526C08437B1F42ED02DD0F82E2BD052
:107F50003CD0F601EF2C8F010F5F1F4F84911BD097
:107F6000EA94F801C1F70894C11CD11CFA94CF0C13
:107F7000D11C0EC0853739F428D08EE10CD085E9AC
:107F80000AD08FE07ACF813511F488E018D01DD067
:107F900080E101D065CF982F8091C00085FFFCCF94
:107FA0009093C60008958091C00087FFFCCF809118
:107FB000C00084FD01C0A8958091C6000895E0E648
:107FC000F0E098E1908380830895EDDF803219F02E
:107FD00088E0F5DFFFCF84E1DECF1F93182FE3DFCA
:107FE0001150E9F7F2DF1F91089580E0E8DFEE27F6
:047FF000FF270994CA
:027FFE00040479
:00000001FF
