:020000040000FA
:100000000C9462000C948A000C948A000C948A0070
:100010000C948A000C948A000C948A000C948A0038
:100020000C948A000C948A000C948A000C948A0028
:100030000C948A000C948A000C948A000C948A0018
:100040000C9403030C948A000C94D1020C94AB0220
:100050000C948A000C948A000C948A000C948A00F8
:100060000C948A000C948A000000000024002700F1
:100070002A0000000000250028002B0000000000DE
:1000800023002600290004040404040404040202DA
:100090000202020203030303030301020408102007
:1000A0004080010204081020010204081020000012
:1000B0000008000201000003040700000000000027
:1000C00000004D0311241FBECFEFD8E0DEBFCDBF2F
:1000D00011E0A0E0B1E0E0E1FEE002C005900D9289
:1000E000A233B107D9F721E0A2E3B1E001C01D922C
:1000F000AA3FB207E1F710E0C2E6D0E004C02197C2
:10010000FE010E940007C136D107C9F70E9484038F
:100110000C9406070C94000081E480937C0080918D
:100120007A00806480937A0080917A0086FDFCCF0B
:1001300080917800909179000895AF92BF92CF920C
:10014000DF92EF92FF920F931F93CF93DF936C0197
:100150007B018B01040F151FEB015E01AE18BF0878
:10016000C017D10759F06991D601ED91FC9101902A
:10017000F081E02DC6010995892B79F7C501DF9142
:10018000CF911F910F91FF90EF90DF90CF90BF9094
:10019000AF900895FC01538D448D252F30E0842FBE
:1001A00090E0821B930B541710F0CF96089501979F
:1001B0000895FC01918D828D981761F0A28DAE0F8C
:1001C000BF2FB11D5D968C91928D9F5F9F73928F13
:1001D00090E008958FEF9FEF0895FC01918D828D3F
:1001E000981731F0828DE80FF11D858D90E008950C
:1001F0008FEF9FEF0895FC01918D228D892F90E064
:10020000805C9F4F821B91098F739927089589E520
:1002100091E00E94FB0021E0892B09F420E0822F6D
:10022000089580E090E0892B29F00E940701811158
:100230000C9400000895FC01A48DA80FB92FB11DE6
:10024000A35ABF4F2C91848D90E001968F7399270C
:10025000848FA689B7892C93A089B1898C918370EA
:1002600080648C93938D848D981306C00288F389E3
:10027000E02D80818F7D80830895EF92FF920F9310
:100280001F93CF93DF93EC0181E0888F9B8D8C8D42
:1002900098131AC0E889F989808185FF15C09FB736
:1002A000F894EE89FF896083E889F98980818370F9
:1002B000806480839FBF81E090E0DF91CF911F91A8
:1002C0000F91FF90EF900895F62E0B8D10E00F5FC9
:1002D0001F4F0F731127E02E8C8D8E110CC00FB69F
:1002E00007FCFACFE889F989808185FFF5CFCE0137
:1002F0000E941B01F1CFEB8DEC0FFD2FF11DE35A96
:10030000FF4FF0829FB7F8940B8FEA89FB898081B9
:100310008062CFCFCF93DF93EC01888D8823B9F033
:10032000AA89BB89E889F9898C9185FD03C0808100
:1003300086FD0DC00FB607FCF7CF8C9185FFF2CF7D
:10034000808185FFEDCFCE010E941B01E9CFDF91B7
:10035000CF910895833081F028F4813099F0823074
:10036000A9F008958730A9F08830C9F08430B1F43D
:10037000809180008F7D03C0809180008F77809373
:100380008000089584B58F7784BD089584B58F7DEE
:10039000FBCF8091B0008F778093B000089580915B
:1003A000B0008F7DF9CFCF93DF93282F30E0F90194
:1003B000E255FF4F8491F901E656FF4FD491F901C0
:1003C000EA57FF4FC491CC23A1F081110E94AA01EA
:1003D000EC2FF0E0EE0FFF1FE458FF4FA591B49112
:1003E000EC91ED2381E090E009F480E0DF91CF9182
:1003F000089580E090E0FACF1F93CF93DF93282FEA
:1004000030E0F901E255FF4F8491F901E656FF4FC4
:10041000D491F901EA57FF4FC491CC23A9F0162FCC
:1004200081110E94AA01EC2FF0E0EE0FFF1FEE58A1
:10043000FF4FA591B4918FB7F894EC91111108C0BA
:10044000D095DE23DC938FBFDF91CF911F9108956C
:10045000DE2BF8CFCF93DF9390E0FC01E656FF4F01
:1004600024918A579F4FFC0184918823D1F090E01A
:10047000880F991FFC01E859FF4FA591B491FC0129
:10048000EE58FF4FC591D49161110EC09FB7F894FB
:100490008C91E22FE0958E238C932881E223E883D0
:1004A0009FBFDF91CF9108958FB7F894EC91E22B25
:1004B000EC938FBFF6CF3FB7F894809137019091BE
:1004C0003801A0913901B0913A0126B5A89B05C029
:1004D0002F3F19F00196A11DB11D3FBFBA2FA92FC3
:1004E000982F8827BC01CD01620F711D811D911DC0
:1004F00042E0660F771F881F991F4A95D1F708952C
:100500002FB7F894609133017091340180913501D7
:10051000909136012FBF089542E050E065E171E00F
:1005200089E591E00C949D00CF93DF93FC0101904D
:100530000020E9F73197AF01481B590BBC0189E551
:1005400091E00E949D00EC010E948C028C0F9D1F87
:10055000DF91CF9108951F920F920FB60F92112441
:100560002F933F934F935F936F937F938F939F93BB
:10057000AF93BF93EF93FF9389E591E00E941B0136
:10058000FF91EF91BF91AF919F918F917F916F916B
:100590005F914F913F912F910F900FBE0F901F9041
:1005A00018951F920F920FB60F9211242F938F93CD
:1005B0009F93EF93FF93E0916901F0916A0180812D
:1005C000E0916F01F091700182FD1BC090818091DC
:1005D00072018F5F8F7320917301821741F0E09158
:1005E0007201F0E0E75AFE4F958F80937201FF9100
:1005F000EF919F918F912F910F900FBE0F901F90B1
:1006000018958081F4CF1F920F920FB60F9211248C
:100610002F933F938F939F93AF93BF938091330119
:1006200090913401A0913501B091360130913201A1
:1006300023E0230F2D3758F50196A11DB11D2093FE
:1006400032018093330190933401A0933501B0932C
:1006500036018091370190913801A0913901B09114
:100660003A010196A11DB11D809337019093380185
:10067000A0933901B0933A01BF91AF919F918F91AF
:100680003F912F910F900FBE0F901F90189526E865
:10069000230F0296A11DB11DD2CFE9E5F1E013822F
:1006A000128288EE93E0A0E0B0E084839583A68375
:1006B000B78387E091E09183808385EC90E0958714
:1006C000848784EC90E09787868780EC90E0918B1C
:1006D000808B81EC90E0938B828B82EC90E0958B09
:1006E000848B86EC90E0978B868B118E128E138E06
:1006F000148E0E9480026093F6017093F70180933C
:10070000F8019093F9010895789484B5826084BDCE
:1007100084B5816084BD85B5826085BD85B5816005
:1007200085BD80916E00816080936E001092810083
:10073000809181008260809381008091810081603E
:1007400080938100809180008160809380008091FF
:10075000B10084608093B1008091B000816080938B
:10076000B00080917A00846080937A0080917A0052
:10077000826080937A0080917A00816080937A0011
:1007800080917A00806880937A001092C10061E0C5
:1007900082E00E942A0261E083E00E942A0261E076
:1007A00084E00E942A0261E085E00E942A0261E062
:1007B0008DE00E942A0261E08CE00E942A0261E042
:1007C0008BE00E942A0261E08AE00E942A0261E036
:1007D00089E00E942A0261E088E00E942A0260E02B
:1007E0008EE00E942A0260E087E00E942A0260E018
:1007F00086E00E942A0260E08FE00E942A0261E007
:1008000084E00E94FC0161E085E00E94FC0161E05F
:100810008DE00E94FC0161E08AE00E94FC01E09111
:100820006901F0916A0182E08083E0916501F091B5
:1008300066011082E0916701F09168018FEC80837E
:1008400010927101E0916D01F0916E0186E080835C
:10085000E0916B01F0916C01808180618083E09177
:100860006B01F0916C01808188608083E0916B0165
:10087000F0916C01808180688083E0916B01F09140
:100880006C0180818F7D808388E191E00E949402D9
:1008900000E010E0C1E00E9480026093F6017093D6
:1008A000F7018093F8019093F90189E591E00E94A6
:1008B000FB00892B09F4FBC089E591E00E94D90077
:1008C0008536910509F0F3C060E085E00E94FC01E7
:1008D00060E084E00E94FC0160E08BE00E94FC018B
:1008E00060E088E00E94FC0160E082E00E94FC0180
:1008F00060E083E00E94FC0160E08DE00E94FC016A
:1009000060E08CE00E94FC0160E08AE00E94FC0153
:1009100060E089E00E94FC01E0905701F0905801EE
:1009200026E0E216F1040CF068C082E00E94D301D8
:1009300061E0892B09F060E082E00E94FC0183E025
:100940000E94D30161E0892B09F060E083E00E94FE
:10095000FC018DE00E94D30161E0892B09F060E089
:100960008DE00E94FC018CE00E94D30161E0892BA4
:1009700009F060E08CE00E94FC018AE00E94D30153
:1009800061E0892B09F060E08AE00E94FC0189E0C7
:100990000E94D30161E0892B09F060E089E00E94A8
:1009A000FC010E945B022B013C0182E3882E912C0A
:1009B000A12CB12C0E945B02641975098609970964
:1009C000683E734081059105A8F381E0881A91087B
:1009D000A108B10828EE420E23E0521E611C711CD2
:1009E00081149104A104B10429F78FEFE81AF80AE1
:1009F000F0925801E09257018FCF1092F6011092B9
:100A0000F7011092F8011092F90110924F01109223
:100A10005001109251011092520110924B0110920C
:100A20004C0110924D0110924E011092460110920D
:100A300047011092480110924901109253011092FF
:100A400054011092550110925601109240011092DB
:100A50004101109242011092430110923C01109208
:100A60003D0110923E0110923F01109258011092E8
:100A70005701C0930201C093000110924A011092E5
:100A800045011092440110923B01C093010161E0C5
:100A900085E00E94FC0161E084E00E94FC0161E0CD
:100AA0008DE00E94FC0161E08AE00E94FC018EE082
:100AB0000E94D301019761F48EE00E94D301019757
:100AC000D9F369E789E591E00E943D010E948C021B
:100AD00087E00E94D301019749F487E00E94D30187
:100AE0000197D9F38EE191E00E94940286E00E9482
:100AF000D301019749F486E00E94D3010197D9F30D
:100B000082E291E00E9494020E948C00019741F4DD
:100B10000E948C000197E1F386E291E00E9494022A
:100B20008091F6019091F701A091F801B091F9013F
:100B300040915301509154016091550170915601BB
:100B40006C017D01C41AD50AE60AF70AB701A601AD
:100B50004C3751406105710590F12091020122232B
:100B600071F120910101222351F18AE291E00E946A
:100B700094020E94800260934F0170935001809311
:100B800051019093520160E085E00E94FC0160E019
:100B90008DE00E94FC0161E08BE00E94FC0110925C
:100BA0000201C09300010115110509F474CE0E94E1
:100BB0000701882309F46FCE0E9400006CCE40919B
:100BC0004F015091500160915101709152016C019F
:100BD0007D01C41AD50AE60AF70AB701A601403911
:100BE00051406105710538F120910001222319F16E
:100BF000209101012223F9F00E94800260934B01B1
:100C000070934C0180934D0190934E0160E084E01D
:100C10000E94FC0160E08BE00E94FC011092000148
:100C200061E083E00E94FC0161E08CE00E94FC0135
:100C3000C0934A01B8CF40914B0150914C01609153
:100C40004D0170914E016C017D01C41AD50AE60A6E
:100C5000F70AB701A601483C510561057105E8F1A5
:100C600020914A012223C9F10E948002609346012B
:100C700070934701809348019093490160E083E0BD
:100C80000E94FC0160E08CE00E94FC0110924A018D
:100C900061E082E00E94FC0161E08DE00E94FC01C5
:100CA000C093450160E08AE00E94FC0110920101BE
:100CB00061E088E00E94FC01C09344010E94800230
:100CC00060934001709341018093420190934301EE
:100CD0008EE291E00E94940266CF409140015091D3
:100CE000410160914201709143016C017D01C41A80
:100CF000D50AE60AF70AB701A60140395140610555
:100D00007105D8F0209144012223B9F00E9480029D
:100D100060933C0170933D0180933E0190933F01AD
:100D200060E088E00E94FC011092440161E089E0EB
:100D30000E94FC01C0933B0136CF40913C01509191
:100D40003D0160913E0170913F016C017D01C41A2B
:100D5000D50AE60AF70AB701A601483C5105610524
:100D6000710598F020913B01222379F00E948002C6
:100D700060E089E00E94FC0110923B0161E08AE0A2
:100D80000E94FC01C09301010ECF40914601509199
:100D900047016091480170914901841B950BA60B96
:100DA000B70B8C379140A105B10508F4FCCE8091BA
:100DB0004501882309F4F7CE80910101882309F4C5
:100DC000F2CE88E191E00E9494020E94800260933A
:100DD000530170935401809355019093560160E044
:100DE00082E00E94FC011092450161E085E00E94D2
:100DF000FC0161E084E00E94FC01C0930201D3CEBB
:100E0000EE0FFF1F0590F491E02D0994F894FFCFA9
:100E1000010101000000003D019D00CA008A01FBA4
:100E200000D900ED000D0A00207675656C00206386
:100E300031002063320020633300207631002076B9
:020E400032007E
:107E0000112484B714BE81FFF0D085E080938100F7
:107E100082E08093C00088E18093C10086E0809377
:107E2000C20080E18093C4008EE0C9D0259A86E02C
:107E300020E33CEF91E0309385002093840096BBD3
:107E4000B09BFECF1D9AA8958150A9F7CC24DD24C4
:107E500088248394B5E0AB2EA1E19A2EF3E0BF2EE7
:107E6000A2D0813461F49FD0082FAFD0023811F036
:107E7000013811F484E001C083E08DD089C08234E0
:107E800011F484E103C0853419F485E0A6D080C0E4
:107E9000853579F488D0E82EFF2485D0082F10E0AE
:107EA000102F00270E291F29000F111F8ED06801E7
:107EB0006FC0863521F484E090D080E0DECF843638
:107EC00009F040C070D06FD0082F6DD080E0C81688
:107ED00080E7D80618F4F601B7BEE895C0E0D1E017
:107EE00062D089930C17E1F7F0E0CF16F0E7DF06D8
:107EF00018F0F601B7BEE89568D007B600FCFDCFD4
:107F0000A601A0E0B1E02C9130E011968C91119780
:107F100090E0982F8827822B932B1296FA010C0160
:107F200087BEE89511244E5F5F4FF1E0A038BF0790
:107F300051F7F601A7BEE89507B600FCFDCF97BE46
:107F4000E89526C08437B1F42ED02DD0F82E2BD052
:107F50003CD0F601EF2C8F010F5F1F4F84911BD097
:107F6000EA94F801C1F70894C11CD11CFA94CF0C13
:107F7000D11C0EC0853739F428D08EE10CD085E9AC
:107F80000AD08FE07ACF813511F488E018D01DD067
:107F900080E101D065CF982F8091C00085FFFCCF94
:107FA0009093C60008958091C00087FFFCCF809118
:107FB000C00084FD01C0A8958091C6000895E0E648
:107FC000F0E098E1908380830895EDDF803219F02E
:107FD00088E0F5DFFFCF84E1DECF1F93182FE3DFCA
:107FE0001150E9F7F2DF1F91089580E0E8DFEE27F6
:047FF000FF270994CA
:027FFE00040479
:00000001FF
