:020000040000FA
:100000000C9462000C948A000C948A000C948A0070
:100010000C948A000C948A000C948A000C948A0038
:100020000C948A000C948A000C948A000C948A0028
:100030000C948A000C948A000C948A000C948A0018
:100040000C9445030C948A000C9413030C94ED0259
:100050000C948A000C948A000C948A000C948A00F8
:100060000C948A000C948A000000000024002700F1
:100070002A0000000000250028002B0000000000DE
:1000800023002600290004040404040404040202DA
:100090000202020203030303030301020408102007
:1000A0004080010204081020010204081020000012
:1000B0000008000201000003040700000000000027
:1000C00000008F0311241FBECFEFD8E0DEBFCDBFED
:1000D00021E0A0E3B1E001C01D92AE3FB207E1F71D
:1000E00011E0A0E0B1E0E4E1F4E102C005900D927E
:1000F000A033B107D9F710E0C2E6D0E004C02197E1
:10010000FE010E941008C136D107C9F70E94C6033C
:100110000C94080A0C940000AF92BF92CF92DF9229
:10012000EF92FF920F931F93CF93DF936C017B01AC
:100130008B01040F151FEB015E01AE18BF08C0173D
:10014000D10759F06991D601ED91FC910190F081B0
:10015000E02DC6010995892B79F7C501DF91CF9173
:100160001F910F91FF90EF90DF90CF90BF90AF90D5
:100170000895FC01538D448D252F30E0842F90E0AD
:10018000821B930B541710F0CF9608950197089592
:10019000FC01918D828D981761F0A28DAE0FBF2F5B
:1001A000B11D5D968C91928D9F5F9F73928F90E0B1
:1001B00008958FEF9FEF0895FC01918D828D981720
:1001C00031F0828DE80FF11D858D90E008958FEF5D
:1001D0009FEF0895FC01918D228D892F90E0805C26
:1001E0009F4F821B91098F739927089589E591E0AC
:1001F0000E94EA0021E0892B09F420E0822F089573
:1002000080E090E0892B29F00E94F60081110C9487
:1002100000000895FC01A48DA80FB92FB11DA35AA9
:10022000BF4F2C91848D90E001968F739927848F16
:10023000A689B7892C93A089B1898C918370806439
:100240008C93938D848D981306C00288F389E02DDA
:1002500080818F7D80830895EF92FF920F931F938B
:10026000CF93DF93EC0181E0888F9B8D8C8D981369
:100270001AC0E889F989808185FF15C09FB7F89475
:10028000EE89FF896083E889F989808183708064C1
:1002900080839FBF81E090E0DF91CF911F910F910C
:1002A000FF90EF900895F62E0B8D10E00F5F1F4F1B
:1002B0000F731127E02E8C8D8E110CC00FB607FC2A
:1002C000FACFE889F989808185FFF5CFCE010E94B8
:1002D0000A01F1CFEB8DEC0FFD2FF11DE35AFF4F1B
:1002E000F0829FB7F8940B8FEA89FB898081806246
:1002F000CFCFCF93DF93EC01888D8823B9F0AA8903
:10030000BB89E889F9898C9185FD03C0808186FDD0
:100310000DC00FB607FCF7CF8C9185FFF2CF80811F
:1003200085FFEDCFCE010E940A01E9CFDF91CF9189
:100330000895833081F028F4813099F08230A9F05B
:1003400008958730A9F08830C9F08430B1F48091E5
:1003500080008F7D03C0809180008F778093800024
:10036000089584B58F7784BD089584B58F7DFBCFC4
:100370008091B0008F778093B00008958091B00095
:100380008F7DF9CFCF93DF93282F30E0F901E2552D
:10039000FF4F8491F901E656FF4FD491F901EA57D6
:1003A000FF4FC491CC23A1F081110E949901EC2F41
:1003B000F0E0EE0FFF1FE458FF4FA591B491EC91D0
:1003C000ED2381E090E009F480E0DF91CF91089582
:1003D00080E090E0FACF1F93CF93DF93282F30E097
:1003E000F901E255FF4F8491F901E656FF4FD49190
:1003F000F901EA57FF4FC491CC23A9F0162F8111C0
:100400000E949901EC2FF0E0EE0FFF1FEE58FF4F16
:10041000A591B4918FB7F894EC91111108C0D095C3
:10042000DE23DC938FBFDF91CF911F910895DE2BE8
:10043000F8CFCF93DF9390E0FC01E656FF4F249175
:100440008A579F4FFC0184918823D1F090E0880F58
:10045000991FFC01E859FF4FA591B491FC01EE589A
:10046000FF4FC591D49161110EC09FB7F8948C9144
:10047000E22FE0958E238C932881E223E8839FBFAF
:10048000DF91CF9108958FB7F894EC91E22BEC9324
:100490008FBFF6CF3FB7F894809135019091360128
:1004A000A0913701B091380126B5A89B05C02F3F18
:1004B00019F00196A11DB11D3FBFBA2FA92F982F8A
:1004C0008827BC01CD01620F711D811D911D42E085
:1004D000660F771F881F991F4A95D1F708952FB788
:1004E000F8946091310170913201809133019091C3
:1004F00034012FBF089542E050E06BE171E089E5DF
:1005000091E00C948C00CF93DF93FC0101900020CC
:10051000E9F73197AF01481B590BBC0189E591E020
:100520000E948C00EC010E947B028C0F9D1FDF91CA
:10053000CF9108950F931F93CF93DF93EC018881A0
:100540009981009759F02A813B812617370730F0AF
:1005500081E0DF91CF911F910F9108958B016F5F23
:100560007F4F0E943B09009759F0998388831B8332
:100570000A832C813D81232B59F7FC011082E8CF9F
:1005800080E0E7CFEF92FF920F931F93CF93DF931B
:10059000EC017B018A01BA010E949A02288139810B
:1005A000811114C02115310519F0C9010E94B2084A
:1005B000198218821D821C821B821A82CE01DF9151
:1005C000CF911F910F91FF90EF9008951D830C83A1
:1005D000B701C9010E94010AF1CF1F920F920FB615
:1005E0000F9211242F933F934F935F936F937F93B9
:1005F0008F939F93AF93BF93EF93FF9389E591E020
:100600000E940A01FF91EF91BF91AF919F918F914D
:100610007F916F915F914F913F912F910F900FBEFE
:100620000F901F9018951F920F920FB60F921124E2
:100630002F938F939F93EF93FF93E0916901F09134
:100640006A018081E0916F01F091700182FD1BC011
:100650009081809172018F5F8F7320917301821757
:1006600041F0E0917201F0E0E75AFE4F958F8093E0
:100670007201FF91EF919F918F912F910F900FBE7B
:100680000F901F9018958081F4CF1F920F920FB694
:100690000F9211242F933F938F939F93AF93BF9308
:1006A0008091310190913201A0913301B0913401D8
:1006B0003091300123E0230F2D3758F50196A11D0D
:1006C000B11D209330018093310190933201A093AA
:1006D0003301B09334018091350190913601A0919E
:1006E0003701B09138010196A11DB11D80933501EC
:1006F00090933601A0933701B0933801BF91AF9129
:100700009F918F913F912F910F900FBE0F901F904F
:10071000189526E8230F0296A11DB11DD2CFE9E559
:10072000F1E01382128288EE93E0A0E0B0E08483CF
:100730009583A683B7838DE091E09183808385ECD8
:1007400090E09587848784EC90E09787868780EC9B
:1007500090E0918B808B81EC90E0938B828B82EC8C
:1007600090E0958B848B86EC90E0978B868B118E36
:10077000128E138E148E0E946F026093F601709396
:10078000F7018093F8019093F9010895CF93DF93D7
:10079000CDB7DEB768970FB6F894DEBF0FBECDBFFA
:1007A000789484B5826084BD84B5816084BD85B54C
:1007B000826085BD85B5816085BD80916E00816058
:1007C00080936E00109281008091810082608093FE
:1007D0008100809181008160809381008091800000
:1007E0008160809380008091B10084608093B1002B
:1007F0008091B00081608093B00080917A00846025
:1008000080937A0080917A00826080937A00809150
:100810007A00816080937A0080917A00806880936A
:100820007A001092C10061E082E00E94190261E04A
:1008300083E00E94190261E084E00E94190261E0F5
:1008400085E00E94190261E08DE00E94190261E0DA
:100850008CE00E94190261E08BE00E94190261E0C5
:100860008AE00E94190261E089E00E94190261E0B9
:1008700088E00E94190260E08EE00E94190260E0A8
:1008800087E00E94190261E084E00E94EB0161E0D0
:1008900085E00E94EB0161E08DE00E94EB0161E0E8
:1008A0008AE00E94EB01E0916901F0916A0182E027
:1008B0008083E0916501F09166011082E09167010B
:1008C000F09168018FEC808310927101E0916D01CD
:1008D000F0916E0186E08083E0916B01F0916C01F4
:1008E000808180618083E0916B01F0916C01808157
:1008F00088608083E0916B01F0916C018081806859
:100900008083E0916B01F0916C0180818F7D808309
:100910008EE191E00E9483029E012F5F3F4F79019B
:1009200090E0C92E90E0D92E11E00E946F026093F2
:10093000F6017093F7018093F8019093F90189E52E
:1009400091E00E94EA00892B09F4FDC089E591E05D
:100950000E94C8008536910509F0F5C060E085E089
:100960000E94EB0160E084E00E94EB0160E08BE01C
:100970000E94EB0160E088E00E94EB0160E082E011
:100980000E94EB0160E083E00E94EB0160E08DE0FB
:100990000E94EB0160E08CE00E94EB0160E08AE0E5
:1009A0000E94EB0160E089E00E94EB01209057017A
:1009B0003090580136E0231631040CF06AC082E012
:1009C0000E94C20161E0892B09F060E082E00E9490
:1009D000EB0183E00E94C20161E0892B09F060E035
:1009E00083E00E94EB018DE00E94C20161E0892B4F
:1009F00009F060E08DE00E94EB018CE00E94C201F2
:100A000061E0892B09F060E08CE00E94EB018AE054
:100A10000E94C20161E0892B09F060E08AE00E9437
:100A2000EB0189E00E94C20161E0892B09F060E0DE
:100A300089E00E94EB010E944A024B015C0184EFB5
:100A4000482E55245394612C712C0E944A02681937
:100A500079098A099B09683E734081059105A8F3CD
:100A600041E0441A51086108710858EE850E53E0C0
:100A7000951EA11CB11C411451046104710429F795
:100A800051013FEFA31AB30AB0925801A092570147
:100A90008DCF1092F6011092F7011092F80110928A
:100AA000F90110924D0110924E0110924F011092D7
:100AB00050011092490110924A0110924B0110927C
:100AC0004C0110924401109245011092460110927F
:100AD000470110925101109252011092530110924D
:100AE000540110923E0110923F0110924001109269
:100AF000410110923A0110923B0110923C01109278
:100B00003D01109258011092570110930201109369
:100B1000000110924801109243011092420110927C
:100B200039011093010161E085E00E94EB0161E071
:100B300084E00E94EB0161E08DE00E94EB0161E046
:100B40008AE00E94EB018EE00E94C201019761F4ED
:100B50008EE00E94C2010197D9F369E789E591E02F
:100B60000E942C010E947B0287E00E94C201019733
:100B700009F069C087E00E94C2010197D9F3809112
:100B8000550190915601019690935601809355011D
:100B90001C8A1B8A1E8A1D8A188E1F8A4AE0B7018A
:100BA0000E94A407F70101900020E9F73197AF01F7
:100BB0004E195F09B701CE0143960E94C2021A8204
:100BC00019821C821B821E821D8241E050E066E277
:100BD00071E0C7010E94C2028B889C888114910435
:100BE00009F4A5C1AF88B88CA114B104B1F08D810E
:100BF0009E81A80EB91EB501C7010E949A028823E2
:100C000009F495C129813A818D819E81B401820FB9
:100C1000931F0E94010ABE82AD824D815E8169816F
:100C20007A8189E591E00E948C000E947B02898193
:100C30009A81009711F00E94B2088B899C890097D5
:100C400011F00E94B2088091F6019091F701A091F5
:100C5000F801B091F9014091510150915201609118
:100C6000530170915401841B950BA60BB70B803D6B
:100C70009740A105B10530F180910201882311F15F
:100C8000809101018823F1F088E291E00E948302C3
:100C90000E946F0260934D0170934E0180934F014B
:100CA0009093500160E085E00E94EB0160E08DE0F0
:100CB0000E94EB0161E08BE00E94EB0110920201C7
:100CC000109300018090F6019090F701A090F80138
:100CD000B090F90180914D0190914E01A0914F018A
:100CE000B0915001A5019401281B390B4A0B5B0BF5
:100CF000DA01C9018C3A9D40A105B10530F180911E
:100D00000001882311F1809101018823F1F00E94F4
:100D10006F026093490170934A0180934B01909355
:100D20004C0160E084E00E94EB0160E08BE00E94F7
:100D3000EB011092000161E083E00E94EB0161E0B1
:100D40008CE00E94EB011093480180914901909141
:100D50004A01A0914B01B0914C01881A990AAA0A44
:100D6000BB0A4CED841645E09406A104B104E0F101
:100D7000809148018823C1F10E946F026093440171
:100D800070934501809346019093470160E083E0B2
:100D90000E94EB0160E08CE00E94EB0110924801A0
:100DA00061E082E00E94EB0161E08DE00E94EB01D6
:100DB0001093430160E08AE00E94EB011092010170
:100DC00061E088E00E94EB01109342010E946F02F3
:100DD00060933E0170933F018093400190934101E5
:100DE0008CE291E00E9483028090F6019090F701DE
:100DF000A090F801B090F90180913E0190913F01DF
:100E0000A0914001B0914101A5019401281B390B2B
:100E10004A0B5B0BDA01C9018C3A9D40A105B10573
:100E2000D0F0809142018823B1F00E946F0260935C
:100E30003A0170933B0180933C0190933D0160E047
:100E400088E00E94EB011092420161E089E00E947B
:100E5000EB011093390180913A0190913B01A091EF
:100E60003C01B0913D01A5019401281B390B4A0BAF
:100E70005B0BDA01C9018C3D9540A105B10590F0ED
:100E800080913901882371F00E946F0260E089E04F
:100E90000E94EB011092390161E08AE00E94EB01AF
:100EA000109301018091440190914501A091460168
:100EB000B0914701881A990AAA0ABB0A40ED841624
:100EC00047E09406A104B10430F1809143018823E6
:100ED00011F1809101018823F1F08EE191E00E94EF
:100EE00083020E946F0260935101709352018093BC
:100EF00053019093540160E082E00E94EB01109254
:100F0000430161E085E00E94EB0161E084E00E9422
:100F1000EB0110930201C114D10409F406CD0E9423
:100F2000F600882309F401CD0E940000FECC8981DF
:100F30009A81009711F00E94B2081A8219821E82CB
:100F40001D821C821B8269CEBB274A3031F4992353
:100F500022F4BDE2909581959F4F0C94B007BB277A
:100F6000FB015527AA27880F991FAA1FA41710F065
:100F7000A41B83955051B9F7A05DAA3308F0A95D71
:100F8000A193009779F7B111B1931192CB010C9411
:100F9000C907DC01FC01672F71917723E1F73297D4
:100FA00004C07C916D9370836291AE17BF07C8F344
:100FB00008952F923F924F925F926F927F928F92FD
:100FC0009F92AF92BF92CF92DF92EF92FF920F93D8
:100FD0001F93CF93DF93CDB7DEB7CA1BDB0B0FB6E2
:100FE000F894DEBF0FBECDBF09942A88398848889F
:100FF0005F846E847D848C849B84AA84B984C88435
:10100000DF80EE80FD800C811B81AA81B981CE0F2B
:10101000D11D0FB6F894DEBF0FBECDBFED01089510
:10102000EE0FFF1F0590F491E02D09940F931F938D
:10103000CF93DF938230910510F482E090E0E0914D
:10104000FC01F091FD0130E020E0B0E0A0E030973D
:1010500099F42115310509F44AC0281B390B2430B5
:101060003105D8F58A819B816115710589F1FB01F4
:1010700093838283FE0111C04081518102811381DB
:1010800048175907E0F04817590799F4109761F08D
:1010900012960C93129713961C933296CF01DF9100
:1010A000CF911F910F9108950093FC011093FD01C2
:1010B000F4CF2115310551F04217530738F0A9013B
:1010C000DB019A01BD01DF01F801C1CFEF01F9CFCA
:1010D0009093FD018093FC01CDCFFE01E20FF31F41
:1010E000819391932250310939832883D7CF20915E
:1010F000FA013091FB01232B41F42091050130913D
:1011000006013093FB012093FA01209103013091F5
:1011100004012115310541F42DB73EB74091070177
:1011200050910801241B350BE091FA01F091FB016D
:10113000E217F307A0F42E1B3F0B2817390778F0AE
:10114000AC014E5F5F4F2417350748F04E0F5F1F0D
:101150005093FB014093FA01819391939FCFF0E06C
:10116000E0E09CCFCF93DF930097E9F0FC0132974A
:1011700013821282A091FC01B091FD01ED0130E0DB
:1011800020E01097A1F420813181820F931F2091DC
:10119000FA013091FB012817390709F061C0F0937B
:1011A000FB01E093FA01DF91CF910895EA01CE1798
:1011B000DF07E8F54A815B819E0141155105B1F7D2
:1011C000E901FB83EA8349915991C40FD51FEC17BC
:1011D000FD0761F4808191810296840F951FE901DA
:1011E00099838883828193819B838A83F0E0E0E006
:1011F00012968D919C9113970097B9F52D913C9182
:101200001197CD010296820F931F2091FA01309120
:10121000FB012817390739F6309751F51092FD0177
:101220001092FC01B093FB01A093FA01BCCFD383D1
:10123000C28340815181840F951FC817D90761F47B
:101240004E5F5F4F88819981480F591F51834083BA
:101250008A819B81938382832115310509F0B0CF68
:10126000F093FD01E093FC019ECFFD01DC01C0CFB6
:1012700013821282D7CFB0E0A0E0E1E4F9E00C9451
:10128000DB078C01009751F4CB010E9416088C01FA
:10129000C801CDB7DEB7E0E10C94F707FC01E60F1B
:1012A000F71F9C0122503109E217F30708F49DC093
:1012B000D901CD91DC911197C617D70798F0C530A9
:1012C000D10530F3CE0104978617970708F3C61BA4
:1012D000D70B2297C193D1936D937C93CF010E943A
:1012E000B208D6CF5B01AC1ABD0A4C018C0E9D1E14
:1012F000A091FC01B091FD01512C412CF12CE12C6D
:10130000109731F58091FA019091FB0188159905AC
:1013100009F05CC04616570608F058C080910301DA
:1013200090910401009741F48DB79EB74091070159
:1013300050910801841B950BE817F90708F055C078
:10134000F093FB01E093FA01F90171836083A0CF70
:101350008D919C91119712966C90129713967C9098
:101360001397A815B90559F56C0142E0C40ED11CBC
:10137000CA14DB0420F1AC014A195B09DA011296A8
:10138000159780F06282738251834083D9016D93F7
:101390007C93E114F10471F0D7011396FC93EE9362
:1013A000129776CF22968C0F9D1FF901918380832F
:1013B000F301EFCFF093FD01E093FC0169CF4816F4
:1013C000590608F42C017D01D3019ACFCB010E946C
:1013D00016087C01009749F0AE01B8010E94F80997
:1013E000C8010E94B208870153CF10E000E050CF3F
:1013F000FB01DC0102C001900D9241505040D8F732
:101400000895FB01DC0101900D920020E1F70895A1
:10141000F894FFCF0101010000FE018000000000F0
:10142000002C018C00B9007901EA00C800DC000D35
:101430000A00207675656C7461002000207631000A
:0414400020763200E0
:107E0000112484B714BE81FFF0D085E080938100F7
:107E100082E08093C00088E18093C10086E0809377
:107E2000C20080E18093C4008EE0C9D0259A86E02C
:107E300020E33CEF91E0309385002093840096BBD3
:107E4000B09BFECF1D9AA8958150A9F7CC24DD24C4
:107E500088248394B5E0AB2EA1E19A2EF3E0BF2EE7
:107E6000A2D0813461F49FD0082FAFD0023811F036
:107E7000013811F484E001C083E08DD089C08234E0
:107E800011F484E103C0853419F485E0A6D080C0E4
:107E9000853579F488D0E82EFF2485D0082F10E0AE
:107EA000102F00270E291F29000F111F8ED06801E7
:107EB0006FC0863521F484E090D080E0DECF843638
:107EC00009F040C070D06FD0082F6DD080E0C81688
:107ED00080E7D80618F4F601B7BEE895C0E0D1E017
:107EE00062D089930C17E1F7F0E0CF16F0E7DF06D8
:107EF00018F0F601B7BEE89568D007B600FCFDCFD4
:107F0000A601A0E0B1E02C9130E011968C91119780
:107F100090E0982F8827822B932B1296FA010C0160
:107F200087BEE89511244E5F5F4FF1E0A038BF0790
:107F300051F7F601A7BEE89507B600FCFDCF97BE46
:107F4000E89526C08437B1F42ED02DD0F82E2BD052
:107F50003CD0F601EF2C8F010F5F1F4F84911BD097
:107F6000EA94F801C1F70894C11CD11CFA94CF0C13
:107F7000D11C0EC0853739F428D08EE10CD085E9AC
:107F80000AD08FE07ACF813511F488E018D01DD067
:107F900080E101D065CF982F8091C00085FFFCCF94
:107FA0009093C60008958091C00087FFFCCF809118
:107FB000C00084FD01C0A8958091C6000895E0E648
:107FC000F0E098E1908380830895EDDF803219F02E
:107FD00088E0F5DFFFCF84E1DECF1F93182FE3DFCA
:107FE0001150E9F7F2DF1F91089580E0E8DFEE27F6
:047FF000FF270994CA
:027FFE00040479
:00000001FF
