:100000000C9462000C948A000C948A000C948A0070
:100010000C948A000C948A000C948A000C948A0038
:100020000C948A000C948A000C948A000C948A0028
:100030000C948A000C948A000C948A000C948A0018
:100040000C94F0020C948A000C94BE020C9498025A
:100050000C948A000C948A000C948A000C948A00F8
:100060000C948A000C948A000000000024002700F1
:100070002A0000000000250028002B0000000000DE
:1000800023002600290004040404040404040202DA
:100090000202020203030303030301020408102007
:1000A0004080010204081020010204081020000012
:1000B0000008000201000003040700000000000027
:1000C00000003A0311241FBECFEFD8E0DEBFCDBF42
:1000D00011E0A0E0B1E0E2E6FDE002C005900D9283
:1000E000AE34B107D9F722E0AEE4B1E001C01D9211
:1000F000A631B207E1F710E0C2E6D0E004C02197D4
:10010000FE010E94A906C136D107C9F70E947103FA
:100110000C94AF060C940000AF92BF92CF92DF9286
:10012000EF92FF920F931F93CF93DF936C017B01AC
:100130008B01040F151FEB015E01AE18BF08C0173D
:10014000D10759F06991D601ED91FC910190F081B0
:10015000E02DC6010995892B79F7C501DF91CF9173
:100160001F910F91FF90EF90DF90CF90BF90AF90D5
:100170000895FC01538D448D252F30E0842F90E0AD
:10018000821B930B541710F0CF9608950197089592
:10019000FC01918D828D981761F0A28DAE0FBF2F5B
:1001A000B11D5D968C91928D9F5F9F73928F90E0B1
:1001B00008958FEF9FEF0895FC01918D828D981720
:1001C00031F0828DE80FF11D858D90E008958FEF5D
:1001D0009FEF0895FC01918D228D892F90E0805C26
:1001E0009F4F821B91098F739927089585E791E0AE
:1001F0000E94EA0021E0892B09F420E0822F089573
:1002000080E090E0892B29F00E94F60081110C9487
:1002100000000895FC01A48DA80FB92FB11DA35AA9
:10022000BF4F2C91848D90E001968F739927848F16
:10023000A689B7892C93A089B1898C918370806439
:100240008C93938D848D981306C00288F389E02DDA
:1002500080818F7D80830895EF92FF920F931F938B
:10026000CF93DF93EC0181E0888F9B8D8C8D981369
:100270001AC0E889F989808185FF15C09FB7F89475
:10028000EE89FF896083E889F989808183708064C1
:1002900080839FBF81E090E0DF91CF911F910F910C
:1002A000FF90EF900895F62E0B8D10E00F5F1F4F1B
:1002B0000F731127E02E8C8D8E110CC00FB607FC2A
:1002C000FACFE889F989808185FFF5CFCE010E94B8
:1002D0000A01F1CFEB8DEC0FFD2FF11DE35AFF4F1B
:1002E000F0829FB7F8940B8FEA89FB898081806246
:1002F000CFCFCF93DF93EC01888D8823B9F0AA8903
:10030000BB89E889F9898C9185FD03C0808186FDD0
:100310000DC00FB607FCF7CF8C9185FFF2CF80811F
:1003200085FFEDCFCE010E940A01E9CFDF91CF9189
:100330000895833081F028F4813099F08230A9F05B
:1003400008958730A9F08830C9F08430B1F48091E5
:1003500080008F7D03C0809180008F778093800024
:10036000089584B58F7784BD089584B58F7DFBCFC4
:100370008091B0008F778093B00008958091B00095
:100380008F7DF9CFCF93DF93282F30E0F901E2552D
:10039000FF4F8491F901E656FF4FD491F901EA57D6
:1003A000FF4FC491CC23A1F081110E949901EC2F41
:1003B000F0E0EE0FFF1FE458FF4FA591B491EC91D0
:1003C000ED2381E090E009F480E0DF91CF91089582
:1003D00080E090E0FACF1F93CF93DF93282F30E097
:1003E000F901E255FF4F8491F901E656FF4FD49190
:1003F000F901EA57FF4FC491CC23A9F0162F8111C0
:100400000E949901EC2FF0E0EE0FFF1FEE58FF4F16
:10041000A591B4918FB7F894EC91111108C0D095C3
:10042000DE23DC938FBFDF91CF911F910895DE2BE8
:10043000F8CFCF93DF9390E0FC01E656FF4F249175
:100440008A579F4FFC0184918823D1F090E0880F58
:10045000991FFC01E859FF4FA591B491FC01EE589A
:10046000FF4FC591D49161110EC09FB7F8948C9144
:10047000E22FE0958E238C932881E223E8839FBFAF
:10048000DF91CF9108958FB7F894EC91E22BEC9324
:100490008FBFF6CF3FB7F8948091530190915401EC
:1004A000A0915501B091560126B5A89B05C02F3FDC
:1004B00019F00196A11DB11D3FBFBA2FA92F982F8A
:1004C0008827BC01CD01620F711D811D911D42E085
:1004D000660F771F881F991F4A95D1F708952FB788
:1004E000F89460914F017091500180915101909169
:1004F00052012FBF0895CF93DF93FC01019000209C
:10050000E9F73197AF01481B590BBC0185E791E032
:100510000E948C00EC0142E050E065E171E085E76B
:1005200091E00E948C008C0F9D1FDF91CF91089568
:100530001F920F920FB60F9211242F933F934F9358
:100540005F936F937F938F939F93AF93BF93EF933B
:10055000FF9385E791E00E940A01FF91EF91BF911F
:10056000AF919F918F917F916F915F914F913F914B
:100570002F910F900FBE0F901F9018951F920F9202
:100580000FB60F9211242F938F939F93EF93FF93A6
:10059000E0918501F09186018081E0918B01F091DD
:1005A0008C0182FD1BC0908180918E018F5F8F73C3
:1005B00020918F01821741F0E0918E01F0E0EB581D
:1005C000FE4F958F80938E01FF91EF919F918F91B8
:1005D0002F910F900FBE0F901F9018958081F4CF30
:1005E0001F920F920FB60F9211242F933F938F9368
:1005F0009F93AF93BF9380914F0190915001A09131
:100600005101B091520130914E0123E0230F2D375B
:1006100058F50196A11DB11D20934E0180934F0105
:1006200090935001A0935101B093520180915301D6
:1006300090915401A0915501B09156010196A11DD0
:10064000B11D8093530190935401A0935501B09331
:100650005601BF91AF919F918F913F912F910F9034
:100660000FBE0F901F90189526E8230F0296A11D2C
:10067000B11DD2CFE5E7F1E01382128288EE93E05C
:10068000A0E0B0E084839583A683B78387E091E000
:100690009183808385EC90E09587848784EC90E05B
:1006A0009787868780EC90E0918B808B81EC90E03F
:1006B000938B828B82EC90E0958B848B86EC90E020
:1006C000978B868B118E128E138E148E0E946F0262
:1006D0006093120270931302809314029093150298
:1006E0000895789484B5826084BD84B5816084BDAA
:1006F00085B5826085BD85B5816085BD80916E00C0
:10070000816080936E0010928100809181008260F0
:10071000809381008091810081608093810080912D
:1007200080008160809380008091B100846080931C
:10073000B1008091B00081608093B00080917A0018
:10074000846080937A0080917A00826080937A003E
:1007500080917A00816080937A0080917A0080682D
:1007600080937A001092C10061E082E00E94190239
:1007700061E083E00E94190261E084E00E941902B6
:1007800061E085E00E94190261E08DE00E9419029B
:1007900061E08CE00E94190261E08BE00E94190286
:1007A00061E08AE00E94190261E089E00E9419027A
:1007B00061E088E00E94190260E08EE00E94190268
:1007C00061E084E00E94EB0161E085E00E94EB01C2
:1007D00061E08DE00E94EB0161E08AE00E94EB01A4
:1007E000E0918501F091860182E08083E0918101B2
:1007F000F09182011082E0918301F09184018FECED
:10080000808310928D01E0918901F0918A0186E048
:100810008083E0918701F0918801808180618083ED
:10082000E0918701F0918801808188608083E09168
:100830008701F0918801808180688083E091870141
:10084000F091880180818F7D808300E010E0C1E01D
:100850000E946F026093120270931302809314023D
:100860009093150285E791E00E94EA00892B09F434
:10087000F8C085E791E00E94C8008536910509F02F
:10088000F0C060E084E00E94EB0160E08BE00E9439
:10089000EB0160E088E00E94EB0160E082E00E94F2
:1008A000EB0160E083E00E94EB0160E08DE00E94DC
:1008B000EB0160E08CE00E94EB0160E08AE00E94C6
:1008C000EB0160E089E00E94EB01E0907301F090A1
:1008D000740126E0E216F1040CF069C082E00E9487
:1008E000C20161E0892B09F060E082E00E94EB0127
:1008F00083E00E94C20161E0892B09F060E083E09F
:100900000E94EB018DE00E94C20161E0892B09F099
:1009100060E08DE00E94EB018CE00E94C20161E08A
:10092000892B09F060E08CE00E94EB018AE00E94D4
:10093000C20161E0892B09F060E08AE00E94EB01CE
:1009400089E00E94C20161E0892B09F060E089E042
:100950000E94EB010E944A022B013C0184EF882E89
:1009600099249394A12CB12C0E944A026419750910
:1009700086099709683E734081059105A8F331E027
:10098000831A9108A108B10848EE440E43E0541EB2
:10099000611C711C81149104A104B10429F78FEF2B
:1009A000E81AF80AF0927401E09273018ECF109267
:1009B0001202109213021092140210921502109259
:1009C0006B0110926C0110926D0110926E011092E9
:1009D0006701109268011092690110926A011092E9
:1009E00062011092630110926401109265011092ED
:1009F0006F011092700110927101109272011092A9
:100A00005C0110925D0110925E0110925F011092E4
:100A100058011092590110925A0110925B011092E4
:100A2000740110927301C0930201C09300011092EF
:100A30006601109261011092600110925701C093FB
:100A4000010161E085E00E94EB0161E084E00E9429
:100A5000EB0161E08DE00E94EB0161E08AE00E9421
:100A6000EB01C0901202D0901302E0901402F090BB
:100A7000150280916F0190917001A0917101B09168
:100A80007201A7019601281B390B4A0B5B0BDA0197
:100A9000C901803B9440A105B10510F1809102018C
:100AA0008823F1F0809101018823D1F00E946F0228
:100AB00060936B0170936C0180936D0190936E0154
:100AC00060E085E00E94EB0160E08DE00E94EB01B8
:100AD00061E08BE00E94EB0110920201C0930001E3
:100AE00080916B0190916C01A0916D01B0916E01AC
:100AF000C81AD90AEA0AFB0A44ECC41649E0D4062B
:100B0000E104F10450F180910001882331F18091DA
:100B10000101882311F188E191E00E947B020E948B
:100B20006F026093670170936801809369019093ED
:100B30006A0160E084E00E94EB0160E08BE00E94CB
:100B4000EB011092000161E083E00E94EB0161E0A3
:100B50008CE00E94EB01C09366018091120290919B
:100B60001302A0911402B0911502409167015091B7
:100B700068016091690170916A01841B950BA60B55
:100B8000B70B84319540A105B105E0F18091660174
:100B90008823C1F186E291E00E947B020E946F02ED
:100BA0006093620170936301809364019093650187
:100BB00060E083E00E94EB0160E08CE00E94EB01CA
:100BC0001092660161E082E00E94EB0161E08DE03D
:100BD0000E94EB01C093610160E08AE00E94EB019A
:100BE0001092010161E088E00E94EB01C093600176
:100BF0000E946F0260935C0170935D0180935E01BF
:100C000090935F018091120290911302A0911402BF
:100C1000B091150240915C0150915D0160915E01BF
:100C200070915F01841B950BA60BB70B843C994018
:100C3000A105B105F0F0809160018823D1F087E330
:100C400091E00E947B020E946F02609358017093B2
:100C5000590180935A0190935B0160E088E00E9403
:100C6000EB011092600161E089E00E94EB01C0930A
:100C70005701C0901202D0901302E0901402F0903D
:100C800015028091580190915901A0915A01B0919B
:100C90005B01A7019601281B390B4A0B5B0BDA019C
:100CA000C90184319540A105B10590F080915701AB
:100CB000882371F00E946F0260E089E00E94EB01DE
:100CC0001092570161E08AE00E94EB01C09301019C
:100CD0008091620190916301A0916401B0916501DE
:100CE000C81AD90AEA0AFB0A40EDC41647E0D4063E
:100CF000E104F10410F1809161018823F1F0809109
:100D000001018823D1F00E946F0260936F017093FC
:100D10007001809371019093720160E082E00E9403
:100D2000EB011092610161E085E00E94EB0161E05E
:100D300084E00E94EB01C09302010115110509F442
:100D400087CD0E94F600882309F482CD0E9400001E
:100D50007FCDEE0FFF1F0590F491E02D0994F894DC
:020D6000FFCFC3
:100D6200010101000000002C018C00B9007901EAA8
:100D720000C800DC000D0A00456E7472612061201B
:100D8200766572646500456E747261206120616DE2
:100D92006172696C6C6F00456E7472612061206FC4
:0E0DA20074726F2073656D61666F726F000072
:00000001FF
