:100000000C9462000C948A000C948A000C948A0070
:100010000C948A000C948A000C948A000C948A0038
:100020000C948A000C948A000C948A000C948A0028
:100030000C948A000C948A000C948A000C948A0018
:100040000C94F2020C948A000C94C0020C949A0254
:100050000C948A000C948A000C948A000C948A00F8
:100060000C948A000C948A000000000024002700F1
:100070002A0000000000250028002B0000000000DE
:1000800023002600290004040404040404040202DA
:100090000202020203030303030301020408102007
:1000A0004080010204081020010204081020000012
:1000B0000008000201000003040700000000000027
:1000C00000003C0311241FBECFEFD8E0DEBFCDBF40
:1000D00011E0A0E0B1E0E4E3FEE002C005900D9283
:1000E000AA33B107D9F722E0AAE3B1E001C01D921B
:1000F000A230B207E1F710E0C2E6D0E004C02197D9
:10010000FE010E941207C136D107C9F70E9473038E
:100110000C9418070C940000AF92BF92CF92DF921C
:10012000EF92FF920F931F93CF93DF936C017B01AC
:100130008B01040F151FEB015E01AE18BF08C0173D
:10014000D10759F06991D601ED91FC910190F081B0
:10015000E02DC6010995892B79F7C501DF91CF9173
:100160001F910F91FF90EF90DF90CF90BF90AF90D5
:100170000895FC01538D448D252F30E0842F90E0AD
:10018000821B930B541710F0CF9608950197089592
:10019000FC01918D828D981761F0A28DAE0FBF2F5B
:1001A000B11D5D968C91928D9F5F9F73928F90E0B1
:1001B00008958FEF9FEF0895FC01918D828D981720
:1001C00031F0828DE80FF11D858D90E008958FEF5D
:1001D0009FEF0895FC01918D228D892F90E0805C26
:1001E0009F4F821B91098F739927089581E691E0B3
:1001F0000E94EA0021E0892B09F420E0822F089573
:1002000080E090E0892B29F00E94F60081110C9487
:1002100000000895FC01A48DA80FB92FB11DA35AA9
:10022000BF4F2C91848D90E001968F739927848F16
:10023000A689B7892C93A089B1898C918370806439
:100240008C93938D848D981306C00288F389E02DDA
:1002500080818F7D80830895EF92FF920F931F938B
:10026000CF93DF93EC0181E0888F9B8D8C8D981369
:100270001AC0E889F989808185FF15C09FB7F89475
:10028000EE89FF896083E889F989808183708064C1
:1002900080839FBF81E090E0DF91CF911F910F910C
:1002A000FF90EF900895F62E0B8D10E00F5F1F4F1B
:1002B0000F731127E02E8C8D8E110CC00FB607FC2A
:1002C000FACFE889F989808185FFF5CFCE010E94B8
:1002D0000A01F1CFEB8DEC0FFD2FF11DE35AFF4F1B
:1002E000F0829FB7F8940B8FEA89FB898081806246
:1002F000CFCFCF93DF93EC01888D8823B9F0AA8903
:10030000BB89E889F9898C9185FD03C0808186FDD0
:100310000DC00FB607FCF7CF8C9185FFF2CF80811F
:1003200085FFEDCFCE010E940A01E9CFDF91CF9189
:100330000895833081F028F4813099F08230A9F05B
:1003400008958730A9F08830C9F08430B1F48091E5
:1003500080008F7D03C0809180008F778093800024
:10036000089584B58F7784BD089584B58F7DFBCFC4
:100370008091B0008F778093B00008958091B00095
:100380008F7DF9CFCF93DF93282F30E0F901E2552D
:10039000FF4F8491F901E656FF4FD491F901EA57D6
:1003A000FF4FC491CC23A1F081110E949901EC2F41
:1003B000F0E0EE0FFF1FE458FF4FA591B491EC91D0
:1003C000ED2381E090E009F480E0DF91CF91089582
:1003D00080E090E0FACF1F93CF93DF93282F30E097
:1003E000F901E255FF4F8491F901E656FF4FD49190
:1003F000F901EA57FF4FC491CC23A9F0162F8111C0
:100400000E949901EC2FF0E0EE0FFF1FEE58FF4F16
:10041000A591B4918FB7F894EC91111108C0D095C3
:10042000DE23DC938FBFDF91CF911F910895DE2BE8
:10043000F8CFCF93DF9390E0FC01E656FF4F249175
:100440008A579F4FFC0184918823D1F090E0880F58
:10045000991FFC01E859FF4FA591B491FC01EE589A
:10046000FF4FC591D49161110EC09FB7F8948C9144
:10047000E22FE0958E238C932881E223E8839FBFAF
:10048000DF91CF9108958FB7F894EC91E22BEC9324
:100490008FBFF6CF3FB7F89480913F019091400114
:1004A000A0914101B091420126B5A89B05C02F3F04
:1004B00019F00196A11DB11D3FBFBA2FA92F982F8A
:1004C0008827BC01CD01620F711D811D911D42E085
:1004D000660F771F881F991F4A95D1F708952FB788
:1004E000F89460913B0170913C0180913D019091A5
:1004F0003E012FBF089542E050E065E171E081E6E2
:1005000091E00C948C00CF93DF93FC0101900020CC
:10051000E9F73197AF01481B590BBC0181E691E027
:100520000E948C00EC010E947B028C0F9D1FDF91CA
:10053000CF9108951F920F920FB60F9211242F930F
:100540003F934F935F936F937F938F939F93AF935B
:10055000BF93EF93FF9381E691E00E940A01FF9120
:10056000EF91BF91AF919F918F917F916F915F912B
:100570004F913F912F910F900FBE0F901F901895A4
:100580001F920F920FB60F9211242F938F939F9368
:10059000EF93FF93E0917101F09172018081E091FE
:1005A0007701F091780182FD1BC0908180917A01E2
:1005B0008F5F8F7320917B01821741F0E0917A0168
:1005C000F0E0EF59FE4F958F80937A01FF91EF9104
:1005D0009F918F912F910F900FBE0F901F901895A4
:1005E0008081F4CF1F920F920FB60F9211242F9398
:1005F0003F938F939F93AF93BF9380913B019091D3
:100600003C01A0913D01B0913E0130913A0123E0BF
:10061000230F2D3758F50196A11DB11D20933A01E6
:1006200080933B0190933C01A0933D01B0933E0128
:1006300080913F0190914001A0914101B091420110
:100640000196A11DB11D80933F0190934001A0939D
:100650004101B0934201BF91AF919F918F913F9122
:100660002F910F900FBE0F901F90189526E8230F23
:100670000296A11DB11DD2CFE1E6F1E013821282F4
:1006800088EE93E0A0E0B0E084839583A683B783EF
:1006900087E091E09183808385EC90E09587848763
:1006A00084EC90E09787868780EC90E0918B808B3C
:1006B00081EC90E0938B828B82EC90E0958B848B25
:1006C00086EC90E0978B868B118E128E138E148E93
:1006D0000E946F026093FE017093FF0180930002FD
:1006E000909301020895789484B5826084BD84B5A6
:1006F000816084BD85B5826085BD85B5816085BD1D
:1007000080916E00816080936E00109281008091D4
:10071000810082608093810080918100816080935C
:100720008100809180008160809380008091B10081
:1007300084608093B1008091B00081608093B000AC
:1007400080917A00846080937A0080917A00826040
:1007500080937A0080917A00816080937A00809102
:100760007A00806880937A001092C10061E082E094
:100770000E94190261E083E00E94190261E084E0B6
:100780000E94190261E085E00E94190261E08DE09B
:100790000E94190261E08CE00E94190261E08BE086
:1007A0000E94190261E08AE00E94190261E089E07A
:1007B0000E94190261E088E00E94190260E08EE068
:1007C0000E94190260E087E00E94190260E086E062
:1007D0000E94190260E08FE00E94190261E084E04B
:1007E0000E94EB0161E085E00E94EB0161E08DE099
:1007F0000E94EB0161E08AE00E94EB01E09171014F
:10080000F091720182E08083E0916D01F0916E01C0
:100810001082E0916F01F09170018FEC8083109253
:100820007901E0917501F091760186E08083E09195
:100830007301F0917401808180618083E091730184
:10084000F0917401808188608083E0917301F09160
:100850007401808180688083E0917301F09174015C
:1008600080818F7D808388E191E00E9483028EE108
:1008700091E00E94830282E291E00E94830200E004
:1008800010E0C1E00E946F026093FE017093FF01CF
:10089000809300029093010281E691E00E94EA00B9
:1008A000892B09F4FCC081E691E00E94C8008536DE
:1008B000910509F0F4C060E085E00E94EB0160E082
:1008C00084E00E94EB0160E08BE00E94EB0160E0BD
:1008D00088E00E94EB0160E082E00E94EB0160E0B2
:1008E00083E00E94EB0160E08DE00E94EB0160E09C
:1008F0008CE00E94EB0160E08AE00E94EB0160E086
:1009000089E00E94EB01E0905F01F09060012AE035
:10091000E216F1040CF069C082E00E94C20161E0BD
:10092000892B09F060E082E00E94EB0183E00E94E5
:10093000C20161E0892B09F060E083E00E94EB01D5
:100940008DE00E94C20161E0892B09F060E08DE03A
:100950000E94EB018CE00E94C20161E0892B09F04A
:1009600060E08CE00E94EB018AE00E94C20161E03D
:10097000892B09F060E08AE00E94EB0189E00E9487
:10098000C20161E0892B09F060E089E00E94EB017F
:100990000E944A022B013C0184EF882E99249394F3
:1009A000A12CB12C0E944A02641975098609970985
:1009B000683E734081059105A8F381E0881A91088B
:1009C000A108B10828EE420E23E0521E611C711CE2
:1009D00081149104A104B10429F78FEFE81AF80AF1
:1009E000F0926001E0925F018ECF1092FE011092B2
:1009F000FF01109200021092010210925601109213
:100A00005701109258011092590110925201109200
:100A10005301109254011092550110924D01109201
:100A20004E0110924F011092500110925A011092F3
:100A30005B0110925C0110925D01109248011092CE
:100A4000490110924A0110924B01109244011092F8
:100A500045011092460110924701109260011092D8
:100A60005F01C0930201C0930101109251011092E5
:100A70004C0110925E0110924301C093000161E0AD
:100A800085E00E94EB0161E084E00E94EB0161E0FF
:100A90008DE00E94EB0161E08AE00E94EB018EE0B4
:100AA0000E94C201019761F48EE00E94C201019789
:100AB000D9F369E781E691E00E942C010E947B0254
:100AC00087E00E94C201019789F48091020181119F
:100AD00004C080910101882349F087E00E94C2018F
:100AE0000197D9F386E291E00E94830286E00E949A
:100AF000C201019769F480910101882349F086E0E1
:100B00000E94C2010197D9F38EE191E00E94830215
:100B10008FE00E94C201019769F480915E018823F1
:100B200049F08FE00E94C2010197D9F382E291E07F
:100B30000E9483028091FE019091FF01A09100022A
:100B4000B091010240915A0150915B0160915C01AA
:100B500070915D016C017D01C41AD50AE60AF70A9D
:100B6000B701A601403A5F406105710590F12091FF
:100B70000201222371F120910001222351F18AE226
:100B800091E00E9483020E946F026093560170936D
:100B90005701809358019093590160E085E00E94CD
:100BA000EB0160E08DE00E94EB0161E08BE00E94D0
:100BB000EB0110920201C09301010115110509F426
:100BC00061CE0E94F600882309F45CCE0E940000EA
:100BD00059CE409156015091570160915801709142
:100BE00059016C017D01C41AD50AE60AF70AB7015A
:100BF000A60140345F416105710558F12091010162
:100C0000222339F120910001222319F10E946F0261
:100C10006093520170935301809354019093550156
:100C200060E084E00E94EB0160E08BE00E94EB0159
:100C30001092010161E083E00E94EB0161E08CE031
:100C40000E94EB018EE291E00E948302C093510169
:100C5000B4CF409152015091530160915401709171
:100C600055016C017D01C41AD50AE60AF70AB701DD
:100C7000A601483B5B4061057105E8F120915101F7
:100C80002223C9F10E946F0260934D0170934E01BF
:100C900080934F019093500160E083E00E94EB014C
:100CA00060E08CE00E94EB011092510161E082E073
:100CB0000E94EB0161E08DE00E94EB01C0934C01CA
:100CC00060E08AE00E94EB011092000161E088E0A0
:100CD0000E94EB01C0935E010E946F026093480185
:100CE0007093490180934A0190934B0182E391E014
:100CF0000E94830262CF4091480150914901609166
:100D00004A0170914B016C017D01C41AD50AE60AB3
:100D1000F70AB701A60140345F4161057105F8F09B
:100D200020915E012223D9F00E946F02609344015A
:100D300070934501809346019093470160E088E0FD
:100D40000E94EB0110925E0161E089E00E94EB01DC
:100D500086E391E00E948302C09343012ECF40912D
:100D600044015091450160914601709147016C0129
:100D70007D01C41AD50AE60AF70AB701A601483B65
:100D80005B406105710598F020914301222379F0C1
:100D90000E946F0260E089E00E94EB011092430123
:100DA00061E08AE00E94EB01C093000106CF409110
:100DB0004D0150914E0160914F0170915001841B83
:100DC000950BA60BB70B80349F41A105B10508F424
:100DD000F4CE80914C01882309F4EFCE809100017C
:100DE000882309F4EACE88E191E00E9483020E9400
:100DF0006F0260935A0170935B0180935C01909342
:100E00005D0160E082E00E94EB0110924C0161E024
:100E100085E00E94EB0161E084E00E94EB01C09359
:100E20000201CBCEEE0FFF1F0590F491E02D099447
:040E3000F894FFCF64
:100E3400010101000000002C018C00B9007901EAD5
:100E440000C800DC000D0A00207675656C00206384
:100E540032002063330020633100207631002061AA
:0A0E640032002076320020613300D6
:00000001FF
